:100000000C9472000C9493000C9493000C94930045
:100010000C9493000C9493000C9493000C94930014
:100020000C9493000C9493000C9493000C94930004
:100030000C9493000C9493000C9493000C949300F4
:100040000C9493000C9493000C9493000C949300E4
:100050000C9493000C9493000C9493000C949500D2
:100060000C9493000C944B010C9493000C9493000B
:100070000C9493000C94A4000C9493000C949300A3
:100080000C9493000C9493000C9493000C949300A4
:100090000C9493000C9493000C9493000C94930094
:1000A0000C9493000C9493000C9493000C94930084
:1000B0000C9493000C9493000C9493000C94930074
:1000C0000C9493000C9493000C9493000C94930064
:1000D0000C9493000C9493000C9493000C94930054
:1000E0000C94930011241FBECFEFD1E2DEBFCDBF31
:1000F00000E00CBF12E0A0E0B2E0EAE0F7E000E0D0
:100100000BBF02C007900D92A030B107D9F712E0E3
:10011000A0E0B2E001C01D92A834B107E1F70E944F
:10012000AB020C9483030C9400001F920F920FB645
:100130000F9211248F9381E0809300028F910F9092
:100140000FBE0F901F9018951F920F920FB60F922F
:1001500011242F933F938F939F93809178008093E6
:100160000402809179008093030210920802109299
:10017000070220910702309108028091030290E06B
:10018000822B932B909308028093070280910702A1
:1001900090910802982F8827909308028093070275
:1001A00020910702309108028091040290E0822B96
:1001B000932B9093080280930702209105023091BF
:1001C00006028091070290910802820F931F90937C
:1001D000060280930502809102028F5F80930202E3
:1001E0009F918F913F912F910F900FBE0F901F9075
:1001F00018954B3219F4860F971F18C04D3219F419
:10020000861B970B13C04A3261F4869FA001879F1B
:10021000500D969F500D1124662757FD6095762F3F
:100220000EC04F3249F40E944E03CB01AC01662749
:1002300057FD6095762F03C040E050E0BA01CA0137
:10024000089590917C00982B90937C0080917A0087
:10025000806880937A001092020210920602109237
:10026000050280917A00806480937A0001C00000CA
:10027000809102028A30D8F380917A008F77809340
:100280007A0080910502909106026AE070E00E9477
:100290003A03CB0108951F920F920FB60F920BB63F
:1002A0000F9211248F93EF93FF938091C600E091FA
:1002B0000902F0E0E45FFD4F8083809109028B33F7
:1002C00019F41092090205C0809109028F5F809392
:1002D0000902FF91EF918F910F900BBE0F900FBE0F
:1002E0000F901F90189581E08093C5009CE9909332
:1002F000C40096E09093C20098E99093C1001092D8
:10030000090210920A0280930B020895CF93C82F1E
:100310008A3019F48DE00E9486018091C00085FF2B
:10032000FCCFC093C600CF910895CF93C82F82957C
:100330008F708A3010F4805D01C0895A0E94860156
:100340002C2F30E02F7030708C2F8F702A303105B9
:1003500014F4805D01C0895A0E948601CF910895EE
:10036000CF93C82F892F0E9495018C2F0E94950151
:10037000CF910895CF92DF92EF92FF926B017C01B3
:10038000C7010E94B001C6010E94B001FF90EF902A
:10039000DF90CF900895BF92CF92DF92EF92FF92BD
:1003A0000F931F93CF93DF938C0125E0E22EF12C66
:1003B00020E0C0E1D7E23AE0C32ED12CC801BE0153
:1003C0000E943A03B62E662329F4222319F4C13081
:1003D000D10529F48B2D805D0E94860121E06B2DD3
:1003E00070E06C9FC0016D9F900D7C9F900D11245B
:1003F000081B190BCE01B6010E943A03EB010894C9
:10040000E108F108E114F104C9F6DF91CF911F91E1
:100410000F91FF90EF90DF90CF90BF9008954F9293
:100420005F926F927F928F929F92AF92BF92CF9284
:10043000DF92EF92FF920F931F93CF93DF934B01C5
:100440005C010AE010E0C0E0C12C4AECD42E4AE97D
:10045000E42E4BE3F42E5AE0452E512C612C712CE6
:10046000C501B401A70196010E946103D22F222386
:1004700041F4CC2331F481E0C816D104E104F10445
:1004800029F48D2F805D0E948601C1E06D2F70E000
:1004900080E090E0A70196010E941B03DC01CB01E4
:1004A000881A990AAA0ABB0AC701B601A3019201D8
:1004B0000E94610369017A010150104089F6DF91C1
:1004C000CF911F910F91FF90EF90DF90CF90BF9051
:1004D000AF909F908F907F906F905F904F90089516
:1004E000CF93DF93EC0102C00E948601899188239B
:1004F000D9F7DF91CF910895CF93DF93EC01FE01FF
:1005000021968491882319F00E948601F8CFDF910B
:10051000CF91089520910A029091090281E0291358
:1005200080E0089590910A02809109029817D1F312
:10053000E0910A02F0E0E45FFD4F808190910A02B1
:100540009B3319F410920A02089590910A029F5F5A
:1005500090930A02089580917A00876080937A00D0
:1005600080917C00806480937C0080917A00886018
:1005700080937A0080917A00806280937A00559A05
:10058000569A579A209A219A229A239A249A259A1F
:1005900080916E00816080936E0085E686BD85B592
:1005A000856085BD6D9A80919000886080939000F1
:1005B0008091910081618093910010929D00109232
:1005C0009C0084EF91E0909397008093960078943C
:1005D00080E025E6F22E0AE010E0909100029130D2
:1005E000E1F710920002F6BC813001F510939D00F6
:1005F00000939C0080E00E942101EC0180910102A7
:100600008F5F8093010280910102843640F0109246
:100610000102CE010E94CB018AE00E94860181E0A6
:1006200091E0C53FD907C8F680E0D7CF10929D0072
:1006300010929C00DFCF629FD001739FF001829FD8
:10064000E00DF11D649FE00DF11D929FF00D839F61
:10065000F00D749FF00D659FF00D9927729FB00DFE
:10066000E11DF91F639FB00DE11DF91FBD01CF0111
:1006700011240895AA1BBB1B51E107C0AA1FBB1F71
:10068000A617B70710F0A61BB70B881F991F5A951E
:10069000A9F780959095BC01CD01089597FB092E8F
:1006A00007260AD077FD04D0E5DF06D000201AF433
:1006B000709561957F4F0895F6F7909581959F4FBE
:1006C0000895A1E21A2EAA1BBB1BFD010DC0AA1F93
:1006D000BB1FEE1FFF1FA217B307E407F50720F0AB
:1006E000A21BB30BE40BF50B661F771F881F991F26
:1006F0001A9469F760957095809590959B01AC016F
:0A070000BD01CF010895F894FFCF6A
:00000001FF
