:100000000C9472000C9493000C9493000C94930045
:100010000C9493000C9493000C9493000C94930014
:100020000C9493000C9493000C9493000C94930004
:100030000C9493000C9493000C9493000C949300F4
:100040000C9493000C9493000C9493000C949300E4
:100050000C9493000C9493000C9493000C94C601A0
:100060000C9493000C9495000C9493000C949300C2
:100070000C9493000C94D6020C9493000C9493006F
:100080000C9493000C9493000C9493000C949300A4
:100090000C9493000C9493000C9493000C94930094
:1000A0000C9493000C9493000C9493000C94930084
:1000B0000C9493000C9493000C9493000C94930074
:1000C0000C9493000C9493000C9493000C94930064
:1000D0000C9493000C9493000C9493000C94930054
:1000E0000C94930011241FBECFEFD1E2DEBFCDBF31
:1000F00000E00CBF12E0A0E0B2E0E0E6F8E000E0D3
:100100000BBF02C007900D92A830B107D9F722E0CB
:10011000A8E0B2E001C01D92A335B207E1F70E944A
:1001200079030C942E040C9400001F920F920FB6CA
:100130000F9211240F900FBE0F901F9018951092E0
:10014000C50087E68093C40086E08093C20088E9FA
:100150008093C100109214021092150281E08093E6
:1001600016020895CF93C82F8A3019F48DE00E94AB
:10017000B2008091C00085FFFCCFC093C600CF9134
:100180000895CF93C82F82958F708A3010F4805DC8
:1001900001C0895A0E94B2008C2F8F708A3010F4EF
:1001A000805D01C0895ACF910C94B200CF93C82FC3
:1001B000892F0E94C1008C2FCF910C94C100CF9247
:1001C000DF92EF92FF926B017C01C7010E94D60083
:1001D000C601FF90EF90DF90CF900C94D600AF92C5
:1001E000BF92CF92DF92EF92FF920F931F93CF9324
:1001F000DF931F92CDB7DEB77C0105E010E020E071
:1002000080E1A82E87E2B82E9AE0C92ED12CC70132
:10021000B5010E94BF03611106C0211104C081E035
:10022000A816B10439F480E3860F69830E94B200F6
:1002300021E069816A9DC0016B9D900D1124E81A2F
:10024000F90AC501B6010E94BF035B010150110903
:10025000F1F60F90DF91CF911F910F91FF90EF90EA
:10026000DF90CF90BF90AF9008954F925F926F92C2
:100270007F928F929F92AF92BF92CF92DF92EF9236
:10028000FF920F931F93CF93DF934B015C01CAE062
:10029000D0E000E0C12C8AECD82E8AE9E82E8BE36E
:1002A000F82E9AE0492E512C612C712CC501B40115
:1002B000A70196010E94E703122F211108C0011126
:1002C00006C081E0C816D104E104F10429F480E3FA
:1002D000810F0E94B20001E0A12FB0E0A7019601BA
:1002E0000E940904861A970AA80AB90AC701B6012A
:1002F000A30192010E94E70369017A012197B1F6F7
:10030000DF91CF911F910F91FF90EF90DF90CF90F1
:10031000BF90AF909F908F907F906F905F904F9025
:100320000895CF93DF93EC018991882319F00E94FF
:10033000B200FACFDF91CF910895CF93DF93FC0104
:100340008491EF012196882321F00E94B200FE01E2
:10035000F7CFDF91CF9108958091C0008078089504
:100360008091C00087FFFCCF8091C6000895FC01FA
:1003700001900020E9F7319740E39F01281B390BDA
:100380002C33310514F44193F8CF08951F920F9246
:100390000FB60F9211240BB60F922F933F934F93EA
:1003A0005F936F937F938F939F93AF93BF93EF93DD
:1003B000FF93CF93DF93CDB7DEB76497DEBFCDBF9A
:1003C00081E080930C028091080290910902A09133
:1003D0000A02B0910B020196A11DB11D8093080283
:1003E00090930902A0930A02B0930B028B399B43AE
:1003F000A105B10508F4BFC08091C00087FFB3C05C
:1004000019821A821B821C82FE01359680E1DF016F
:100410001D928A95E9F7349B03C063E072E004C043
:10042000349906C065E072E0CE0101960E94230473
:10043000359B03C063E072E004C0359906C065E0F7
:1004400072E0CE0101960E9423044A9B03C063E040
:1004500072E004C04A9906C065E072E0CE010196E0
:100460000E9423044B9B03C063E072E004C04B99DD
:1004700006C065E072E0CE0101960E9423044C9B09
:1004800003C063E072E004C04C9906C065E072E00E
:10049000CE0101960E9423044D9B03C063E072E0ED
:1004A00004C04D9906C065E072E0CE0101960E943D
:1004B00023044E9B03C063E072E004C04E9906C063
:1004C00065E072E0CE0101960E9423044F9B03C0B9
:1004D00063E072E004C04F9906C065E072E0CE01AF
:1004E00001960E942304189B03C063E072E004C0DD
:1004F000189906C065E072E0CE0101960E942304BF
:100500001B9B03C063E072E004C01B9906C065E05A
:1005100072E0CE0101960E9423041C9B03C063E09D
:1005200072E004C01C9906C065E072E0CE0101963D
:100530000E9423041D9B03C063E072E004C01D9968
:1005400006C065E072E0CE0101960E94230460E0DF
:1005500072E0CE0101960E9423040E94B001CE01F8
:1005600001960E94910110920802109209021092C5
:100570000A0210920B0264960FB6F894DEBF0FBE0B
:10058000CDBFDF91CF91FF91EF91BF91AF919F913F
:100590008F917F916F915F914F913F912F910F902C
:1005A0000BBE0F900FBE0F901F9018951F920F92C9
:1005B0000FB60F9211242F933F938F939F938091A7
:1005C000780080930F028091790080930E02109240
:1005D0001302109212028091120290911302209144
:1005E0000E02822B909313028093120280911202CA
:1005F00090911302982F88279093130280931202F0
:10060000809112029091130220910F02822B9093FD
:100610001302809312028091100290911102209196
:10062000120230911302820F931F90931102809354
:10063000100280910D028F5F80930D029F918F9128
:100640003F912F910F900FBE0F901F9018959C0116
:100650004B3219F4860F971F0EC04D3219F4861BCA
:10066000970B09C04A3261F4269FC001279F900D65
:10067000369F900D1124092E000CAA0BBB0B089578
:100680004F3239F40E94D303CB01770FAA0BBB0B77
:10069000089580E090E0DC01089580937C008091D3
:1006A0007C00806480937C0080917A0080688093D5
:1006B0007A0010920D021092110210921002809195
:1006C0007A00806480937A0080910D028A3010F461
:1006D0000000FACF80917A008F7780937A00809122
:1006E0001002909111026AE070E00E94BF03CB01FA
:1006F000089580917A00876080937A0080917A00D3
:10070000886080937A0080917A00806280937A007A
:10071000559A569A579A209A239A249A259A449A37
:10072000459A5A9A5B9A5C9A80916E008160809398
:100730006E0085E686BD85B5816085BD78940E9492
:100740009F0025E680910C028130E1F710920C02A7
:1007500026BD86B196B1907284FD0BC081E09111E7
:1007600001C080E05D98811102C05E98EBCF5E9A77
:10077000E9CF81E0911101C080E05D9AF4CFAA1B1E
:10078000BB1B51E107C0AA1FBB1FA617B70710F07C
:10079000A61BB70B881F991F5A95A9F780959095AE
:1007A000BC01CD01089597FB072E16F4009407D0E5
:1007B00077FD09D00E94BF0307FC05D03EF4909559
:1007C00081959F4F0895709561957F4F0895A1E29F
:1007D0001A2EAA1BBB1BFD010DC0AA1FBB1FEE1FBB
:1007E000FF1FA217B307E407F50720F0A21BB30B06
:1007F000E40BF50B661F771F881F991F1A9469F782
:1008000060957095809590959B01AC01BD01CF01DD
:1008100008950E941404A59F900DB49F900DA49F6D
:10082000800D911D11240895A29FB001B39FC001B6
:10083000A39F700D811D1124911DB29F700D811D0C
:100840001124911D0895FB01DC010D900020E9F7B2
:10085000119701900D920020E1F70895F894FFCFD1
:080860000A0000310030000025
:00000001FF
